:100000000C9446000C9465000C9465000C946500FB
:100010000C9465000C9465000C9465000C946500CC
:100020000C9465000C9465000C9465000C946500BC
:100030000C9465000C9465000C9465000C946500AC
:100040000C9465000C9465000C9465000C9465009C
:100050000C9465000C9465000C9465000C9465008C
:100060000C9465000C9465000C9465000C9465007C
:100070000C9465000C9465000C9465000C9465006C
:100080000C9465000C9465000C94650011241FBE4F
:10009000CFEFD0E4DEBFCDBF11E0A0E0B1E0E0E8FB
:1000A000F9E000E00BBF02C007900D92AE30B1073F
:1000B000D9F721E0AEE0B1E001C01D92A831B2074E
:1000C000E1F70E94A6020C94BE040C940000CF93AA
:1000D000DF9300D01F92CDB7DEB789837B836A831D
:1000E00089818A3031F48A819B81BC018DE00E9434
:1000F000670080EC90E0FC018081882F90E08072A6
:100100009927892BB1F386EC90E02981FC012083AB
:1001100080E090E00F900F900F90DF91CF910895C5
:100120000F931F93CF93DF9300D000D0CDB7DEB7EE
:1001300069837A838B839C8380910E0190910F0158
:10014000A0911001B09111019C01AD0169817A81EA
:100150008B819C810E942A03882309F466C020E0D9
:1001600030E0A90169817A818B819C810E942A03F8
:10017000882351F481E990E021E930E0F901208100
:100180002870FC01208309C081E990E021E930E07A
:10019000F90120812360FC01208328E539E344E74D
:1001A0005FE369817A818B819C810E942A03882385
:1001B00044F488E990E02FEF3FEFFC013183208386
:1001C00034C020E034E244EF56E469817A818B81C7
:1001D0009C810E944C04181634F488E990E0FC01DC
:1001E0001182108222C008E910E020E030E040E0F7
:1001F00053E469817A818B819C810E945104DC01E6
:10020000CB019C01AD0160E074E284EF9AE40E94AE
:100210002F03DC01CB01BC01CD010E94A103DC0155
:10022000CB010197F8019183808300000F900F901C
:100230000F900F90DF91CF911F910F910895CF9361
:10024000DF93CDB7DEB780E990E020E4FC012083A6
:1002500081E990E02BE0FC01208360E070E0CB01BD
:100260000E9490000000DF91CF910895CF93DF931B
:10027000CDB7DEB780E990E0FC01108281E990E023
:10028000FC0110820000DF91CF910895CF93DF939E
:100290001F92CDB7DEB7898380911401909115012B
:1002A0008230910599F08330910538F4009709F474
:1002B0004CC0019709F457C072C08430910521F1F8
:1002C0008430910590F00597A1F169C08981882F4C
:1002D00090E084709927892B09F45AC083E090E05C
:1002E000909315018093140153C08981882F90E069
:1002F00084709927892B09F44DC084E090E0909395
:1003000015018093140146C08981882F90E0847084
:100310009927892B39F084E090E090931501809320
:1003200014013DC085E090E0909315018093140185
:1003300036C08981882F90E084709927892B61F1DC
:10034000109215011092140127C08981882F90E026
:1003500084709927892B11F181E090E09093150129
:10036000809314011BC08981882F90E084709927A5
:10037000892B39F081E090E090931501809314016E
:100380000EC082E090E0909315018093140107C0A5
:10039000000005C0000003C0000001C00000809103
:1003A000140190911501009719F0039721F006C0F0
:1003B0000E941F0103C00E943601000000000F9040
:1003C000DF91CF910895CF93DF9300D01F92CDB7E7
:1003D000DEB789837B836A83809116019091170130
:1003E0008230910571F18330910528F4009749F02E
:1003F000019701F14BC08330910551F10497B9F198
:1004000045C08981813039F481E090E090931701F3
:10041000809316013BC08981823039F482E090E0FC
:10042000909317018093160131C01092170110921A
:1004300016012CC083E090E0909317018093160181
:1004400025C084E090E090931701809316011EC0B0
:100450008981813039F483E090E090931701809393
:10046000160114C010921701109216010FC0898155
:10047000823039F484E090E0909317018093160164
:1004800004C010921701109216010000809116010D
:10049000909117018130910519F0029739F14FC001
:1004A000809112019091130108970CF045C0809142
:1004B0001201909113010196909313018093120100
:1004C0008091120190911301880F991F880F991F35
:1004D0002A813B81820F931FFC0180819181A2813F
:1004E000B381BC01CD010E94900026C08091120111
:1004F00090911301181619060CF580911201909134
:1005000013010197909313018093120180911201BE
:1005100090911301880F991F880F991F2A813B81A1
:10052000820F931FFC0180819181A281B381BC0164
:10053000CD010E94900002C0000001C00000000038
:100540000F900F900F90DF91CF910895CF93DF938D
:10055000CDB7DEB7A5970FB6F894DEBF0FBECDBFFF
:1005600084E290E02FEFFC01208385E290E0FC0123
:10057000108281E290E0FC01108282E290E02FEF95
:10058000FC01208324E2CE010296FC01322F11925D
:100590003A95E9F784EA90EDA2E8B3E48A839B8375
:1005A000AC83BD838BE794EDA2E9B3E48E839F8394
:1005B000A887B98784EA90EDA4EAB3E48A879B8789
:1005C000AC87BD8781E79DE9AEEAB3E48E879F875C
:1005D000A88BB98B80E090E0A4ECB3E48A8B9B8B72
:1005E000AC8BBD8B80E090E0ACEDB3E48E8B9F8B49
:1005F000A88FB98F84EA90EFA6EFB3E48A8F9B8F20
:10060000AC8FBD8F80E090EDA2E0B4E48E8F9F8F21
:10061000A8A3B9A382E090E0909315018093140100
:1006200010921701109216011092130110921201EC
:100630000E941F0180E290E0FC0180818095898307
:1006400089810E944601CE010296BC0189810E94E7
:10065000E301F0CF0E94D70308F481E008950E94DF
:1006600043030C9412040E940B0458F00E940404EB
:1006700040F029F45F3F29F00C94FB0351110C94D6
:1006800046040C9401040E94230468F39923B1F3F7
:10069000552391F3951B550BBB27AA2762177307A8
:1006A000840738F09F5F5F4F220F331F441FAA1F3C
:1006B000A9F335D00E2E3AF0E0E832D091505040F8
:1006C000E695001CCAF72BD0FE2F29D0660F771FA6
:1006D000881FBB1F261737074807AB07B0E809F08C
:1006E000BB0B802DBF01FF2793585F4F3AF09E3F11
:1006F000510578F00C94FB030C9446045F3FE4F33F
:10070000983ED4F3869577956795B795F7959F5F53
:10071000C9F7880F911D9695879597F90895E1E09F
:10072000660F771F881FBB1F621773078407BA07FE
:1007300020F0621B730B840BBA0BEE1F88F7E09559
:1007400008950E94A8036894B1110C94460408957A
:100750000E942B0488F09F5798F0B92F9927B75122
:10076000B0F0E1F0660F771F881F991F1AF0BA9555
:10077000C9F714C0B13091F00E944504B1E008956A
:100780000C944504672F782F8827B85F39F0B93F5C
:10079000CCF3869577956795B395D9F73EF4909508
:1007A0008095709561957F4F8F4F9F4F0895990F5A
:1007B0000008550FAA0BE0E8FEEF16161706E8072B
:1007C000F907C0F012161306E407F50798F0621B4C
:1007D000730B840B950B39F40A2661F0232B242B21
:1007E000252B21F408950A2609F4A140A6958FEF40
:1007F000811D811D089597F99F6780E870E060E092
:1008000008959FEF80EC089500240A9416161706A9
:1008100018060906089500240A94121613061406F1
:1008200005060895092E0394000C11F4882352F054
:10083000BB0F40F4BF2B11F460FF04C06F5F7F4F0C
:100840008F4F9F4F089557FD9058440F551F59F0F3
:100850005F3F71F04795880F97FB991F61F09F3FAD
:1008600079F087950895121613061406551FF2CFD6
:100870004695F1DF08C0161617061806991FF1CF26
:1008800086957105610508940895E894BB2766274D
:100890007727CB0197F908950E94D70308F48FEFCB
:1008A00008950E9464040C9412040E94040438F019
:1008B0000E940B0420F0952311F00C94FB030C9480
:1008C000010411240C9446040E94230470F3959FA4
:1008D000C1F3950F50E0551F629FF001729FBB2737
:1008E000F00DB11D639FAA27F00DB11DAA1F649FD3
:1008F0006627B00DA11D661F829F2227B00DA11D86
:10090000621F739FB00DA11D621F839FA00D611D0B
:10091000221F749F3327A00D611D231F849F600D2C
:10092000211D822F762F6A2F11249F5750409AF055
:10093000F1F088234AF0EE0FFF1FBB1F661F771FE1
:10094000881F91505040A9F79E3F510580F00C94AC
:10095000FB030C9446045F3FE4F3983ED4F3869582
:1009600077956795B795F795E7959F5FC1F7FE2B4C
:10097000880F911D9695879597F90895F894FFCF64
:0E098000000000020000000067000000000000
:00000001FF
