:100000000C9446000C9465000C9465000C946500FB
:100010000C9465000C9465000C9465000C946500CC
:100020000C9465000C9465000C9465000C946500BC
:100030000C9465000C94DE000C9465000C94650033
:100040000C9465000C9465000C9465000C9465009C
:100050000C9465000C9465000C9465000C9465008C
:100060000C9465000C9465000C9465000C9465007C
:100070000C9465000C9465000C9465000C9465006C
:100080000C9465000C9465000C94650011241FBE4F
:10009000CFEFD0E4DEBFCDBF11E0A0E0B1E0E8E6F5
:1000A000F9E000E00BBF02C007900D92AC34B1073D
:1000B000D9F721E0ACE4B1E001C01D92A435B2074C
:1000C000E1F70E94C9020C94B2040C940000CF9393
:1000D000DF9300D01F92CDB7DEB789837B836A831D
:1000E00089818A3031F48A819B81BC018DE00E9434
:1000F000670080EC90E0FC018081882F90E08072A6
:100100009927892BB1F386EC90E02981FC012083AB
:1001100080E090E00F900F900F90DF91CF910895C5
:10012000CF93DF93CDB7DEB781E890E02BE0FC0101
:10013000208388E890E02DE730E0FC0131832083C4
:100140008FE690E022E0FC01208384E890E0FC014F
:100150001182108280910E0190910F01A0911001E7
:10016000B091110180934D0190934E01A0934F01E6
:10017000B09350018FE590E02FE530E0F901208148
:100180002068FC0120830000DF91CF910895CF9378
:10019000DF93CDB7DEB781E890E0FC01108200006C
:1001A000DF91CF910895CF93DF93CDB7DEB781E094
:1001B00080934C010000DF91CF9108951F920F9220
:1001C00000905F000F92112400905B000F922F931C
:1001D0003F934F935F936F937F938F939F93AF93CF
:1001E000BF93EF93FF93CF93DF93CDB7DEB78091AB
:1001F0004D0190914E01A0914F01B0915001019796
:10020000A109B10980934D0190934E01A0934F0134
:10021000B093500180914D0190914E01A0914F01FA
:10022000B0915001892B8A2B8B2B91F40E94D30023
:1002300080910E0190910F01A0911001B0911101D8
:1002400080934D0190934E01A0934F01B0935001C4
:100250000000DF91CF91FF91EF91BF91AF919F91FE
:100260008F917F916F915F914F913F912F910F905F
:1002700000925B000F9000925F000F901F90189506
:10028000CF93DF9300D000D0CDB7DEB769837A83F8
:100290008B839C8389819A81AB81BC8180930E0181
:1002A00090930F01A0931001B093110180910E0162
:1002B00090910F01A0911001B091110180934D0117
:1002C00090934E01A0934F01B093500100000F9006
:1002D0000F900F900F90DF91CF9108950F931F9380
:1002E000CF93DF9300D000D0CDB7DEB769837A8398
:1002F0008B839C8320E030E0A90169817A818B8126
:100300009C810E941E03882351F481E990E021E939
:1003100030E0F90120812870FC01208309C081E9C7
:1003200090E021E930E0F90120812360FC01208385
:1003300028E539E344E75FE369817A818B819C8119
:100340000E941E03882344F488E990E02FEF3FEFDA
:10035000FC013183208334C020E034E244EF56E4D2
:1003600069817A818B819C810E944004181634F443
:1003700088E990E0FC011182108222C008E910E0B7
:1003800020E030E040E053E469817A818B819C81F8
:100390000E944504DC01CB019C01AD0160E074E2E8
:1003A00084EF9AE40E942303DC01CB01BC01CD0160
:1003B0000E949503DC01CB010197F80191838083B2
:1003C00000000F900F900F900F90DF91CF911F9131
:1003D0000F910895CF93DF93CDB7DEB780E990E01A
:1003E00020E4FC01208381E990E02BE0FC012083E4
:1003F00060E070E0CB010E946E010000DF91CF91C0
:100400000895CF93DF93CDB7DEB780E990E0FC018C
:10041000108281E990E0FC0110820000DF91CF9111
:100420000895CF93DF931F92CDB7DEB78983809174
:100430005201909153018130910581F081309105F5
:1004400018F0029791F021C089818130E9F481E0B0
:1004500090E0909353018093520116C082E090E0A7
:10046000909353018093520110C08981813039F4F7
:1004700082E090E0909353018093520106C0109265
:1004800053011092520101C00000809152019091DD
:1004900053018130910531F08130910530F00297A0
:1004A00071F01AC01092120117C0809112018823B6
:1004B00081F060E070E0CB010E946E010AC0809183
:1004C0001201882341F060E070E0CB010E946E01D0
:1004D00002C0000001C0000000000F90DF91CF912A
:1004E0000895CF93DF9300D000D01F92CDB7DEB731
:1004F00089837B836A835D834C8380911201882387
:1005000009F03EC080915101882F90E0880F991F1B
:10051000880F991F2A813B81820F931FFC018081E4
:100520009181A281B381BC01CD010E946E018091B5
:100530005101882F90E0880F991F880F991F2C81F7
:100540003D81820F931FFC0180819181A281B38143
:10055000BC01CD010E949C03DC01CB01BC01CD019B
:100560000E944001809151018F5F809351018091E1
:100570005101873028F01092510181E080931201DF
:1005800000000F900F900F900F900F90DF91CF9180
:100590000895CF93DF93CDB7DEB7E9970FB6F89400
:1005A000DEBF0FBECDBF84E290E02FEFFC012083C1
:1005B00085E290E0FC01108281E290E0FC01108273
:1005C00082E290E02FEFFC01208364E670E080E09F
:1005D00090E00E9440010E9490008CE1E3E1F1E094
:1005E000DE01129601900D928A95E1F78CE1EFE21F
:1005F000F1E0DE015E9601900D928A95E1F710928E
:1006000051010E94EA0180E290E0FC018081809526
:10061000898389810E9411029E01225E3F4FCE0193
:100620000296A901BC0189810E947102000080919B
:100630004C018823E1F310924C01E5CF0E94CB03DB
:1006400008F481E008950E9437030C9406040E9488
:10065000FF0358F00E94F80340F029F45F3F29F0AF
:100660000C94EF0351110C943A040C94F5030E947E
:10067000170468F39923B1F3552391F3951B550B98
:10068000BB27AA2762177307840738F09F5F5F4F65
:10069000220F331F441FAA1FA9F335D00E2E3AF0A4
:1006A000E0E832D091505040E695001CCAF72BD0BC
:1006B000FE2F29D0660F771F881FBB1F261737070D
:1006C0004807AB07B0E809F0BB0B802DBF01FF273F
:1006D00093585F4F3AF09E3F510578F00C94EF032A
:1006E0000C943A045F3FE4F3983ED4F386957795F3
:1006F0006795B795F7959F5FC9F7880F911D9695F8
:10070000879597F90895E1E0660F771F881FBB1F53
:10071000621773078407BA0720F0621B730B840B00
:10072000BA0BEE1F88F7E09508950E949C03689429
:10073000B1110C943A0408950E941F0488F09F5749
:1007400098F0B92F9927B751B0F0E1F0660F771FF5
:10075000881F991F1AF0BA95C9F714C0B13091F0EB
:100760000E943904B1E008950C943904672F782F62
:100770008827B85F39F0B93FCCF3869577956795B0
:10078000B395D9F73EF490958095709561957F4F1C
:100790008F4F9F4F0895990F0008550FAA0BE0E85F
:1007A000FEEF16161706E807F907C0F01216130633
:1007B000E407F50798F0621B730B840B950B39F473
:1007C0000A2661F0232B242B252B21F408950A26D9
:1007D00009F4A140A6958FEF811D811D089597F919
:1007E0009F6780E870E060E008959FEF80EC0895D7
:1007F00000240A9416161706180609060895002400
:100800000A9412161306140605060895092E039479
:10081000000C11F4882352F0BB0F40F4BF2B11F4ED
:1008200060FF04C06F5F7F4F8F4F9F4F089557FD4C
:100830009058440F551F59F05F3F71F04795880F4E
:1008400097FB991F61F09F3F79F0879508951216E5
:1008500013061406551FF2CF4695F1DF08C0161691
:1008600017061806991FF1CF869571056105089442
:100870000895E894BB2766277727CB0197F9089559
:100880000E94CB0308F48FEF08950E9458040C9443
:1008900006040E94F80338F00E94FF0320F095231D
:1008A00011F00C94EF030C94F50311240C943A040A
:1008B0000E94170470F3959FC1F3950F50E0551FE8
:1008C000629FF001729FBB27F00DB11D639FAA27A5
:1008D000F00DB11DAA1F649F6627B00DA11D661FF4
:1008E000829F2227B00DA11D621F739FB00DA11D15
:1008F000621F839FA00D611D221F749F3327A00DCF
:10090000611D231F849F600D211D822F762F6A2F6A
:1009100011249F5750409AF0F1F088234AF0EE0FCF
:10092000FF1FBB1F661F771F881F91505040A9F7FC
:100930009E3F510580F00C94EF030C943A045F3F06
:10094000E4F3983ED4F3869577956795B795F79538
:10095000E7959F5FC1F7FE2B880F911D96958795B0
:0809600097F90895F894FFCF08
:100968000000000200000000670000000000010015
:10097800000001A4D08243A4D0A44300D00244A420
:10098800F0F64300D00244A4F0F64300D00244003D
:1009980000C8430000C84300007A4400007A4400BD
:0C09A800007A4400007A440000C84300BC
:00000001FF
